:020000022000DC
:1060000078830020C5B002001751040099B0020047
:1060100099B0020099B0020099B00200000000009F
:10602000000000000000000000000000FDAD0200C4
:1060300099B0020000000000B5AD020099B0020066
:1060400079AE02006DA3030079AE020079AE0200C2
:1060500079AE020079AE020079AE020079AE02009C
:1060600079AE020079AE020079AE020079AE02008C
:1060700079AE020079AE020079AE020079AE02007C
:1060800079AE020079AE020079AE020079AE02006C
:1060900079AE020079AE020079AE020079AE02005C
:1060A00079AE020079AE020079AE020079AE02004C
:1060B00079AE020079AE020079AE020079AE02003C
:1060C00079AE020079AE020079AE020079AE02002C
:1060D00079AE020079AE020079AE020079AE02001C
:1060E00079AE020079AE020079AE020079AE02000C
:1060F00079AE020079AE020079AE020079AE0200FC
:1061000053B94AB9002908BF00281CBF4FF0FF311E
:106110004FF0FF3000F00CB8ADF1080C6DE904CE83
:1061200000F008F8DDF804E0DDE9022304B0704770
:10613000704700BF2DE9F04786468C460846089E0A
:10614000154674461946002B40F0C2808542B2FACB
:1061500082F245D94AB1C2F1200300FA02FC2EFABC
:1061600003F3954043EA0C0C94404FEA154EA8B255
:10617000BCFBFEF8230C0EFB18CC08FB00F943EA2D
:106180000C43994528D9EB1808F1FF3704D29945FB
:1061900002D9A8F102072B44A3EB0903A4B2B3FB75
:1061A000FEFC0EFB1C330CFB00F044EA0344A0424F
:1061B00014D92C190CF1FF3304D2A04202D9ACF14E
:1061C00002032C44241A43EA07401EB1D4400023A2
:1061D00034607360BDE8F0874746DDE76346F1E76A
:1061E00092BB431B01214FEA154EAFB2B3FBFEFC3D
:1061F000200C0EFB1C330CFB07F840EA03439845C8
:1062000062D9EB180CF1FF3004D2984502D9ACF1F9
:1062100002002B44A3EB0803A4B2B3FBFEFC0EFB6D
:106220001C330CFB07F744EA0344A7424ED92C1950
:106230000CF1FF3304D2A74202D9ACF102032C4483
:10624000E41B43EA0040C0E7C2F1200320FA03F157
:10625000954090402EFA03F303434FEA154EAFB238
:10626000B1FBFEFC0EFB1C10190C0CFB07F841EAFD
:106270000041884504FA02F422D969180CF1FF3074
:1062800004D2884502D9ACF102002944A1EB0801EF
:106290009BB2B1FBFEFC0EFB1C110CFB07F743EAA3
:1062A00001439F420ED9EB180CF1FF3104D29F42FB
:1062B00002D9ACF102012B44DB1B41EA004192E719
:1062C0006046E3E76146F7E76046A3E76346B7E762
:1062D000834206D916B9002108467BE7C6E900E0EB
:1062E000F9E7B3FA83F78FB9834201D3724508D82F
:1062F000BEEB020460EB030301209C461EB90021A3
:1063000068E73846FAE7C6E9004CF8E7C7F1200C21
:10631000BB4022FA0CF41C432EFA0CF120FA0CF3C9
:10632000B84001434FEA14490EFA07F5B3FBF9F8F8
:106330001FFA84FE09FB18300B0C08FB0EFA43EA27
:1063400000439A4502FA07F240D9E31808F1FF30FA
:1063500004D29A4502D9A8F102002344A3EB0A0310
:1063600089B2B3FBF9F809FB183308FB0EFE41EACA
:1063700003418E452CD9611808F1FF3304D28E45B4
:1063800002D9A8F10203214443EA0040A0FB02988D
:10639000A1EB0E014145CE46434602D306D14D4501
:1063A00004D2B9EB020E68EB04030138002EA6D02C
:1063B000B5EB0E0261EB030101FA0CFC22FA07F3C4
:1063C0004CEA0303F940C6E9003198E74046C5E7C7
:1063D0004346D9E70000000073B5C24DD5F85431EB
:1063E000996811F0010121D101AA40F6034005F09E
:1063F000A3FC0446002864D1019883681B789BB9EC
:10640000BFF35B8FD5F8CC30BFF35B8F05F1CC02C7
:1064100003F00903BFF35B8F52E8001F42E800342A
:10642000002CF9D1BFF35B8F16F064FE01AA0021A6
:1064300041F2030005F080FC0446002841D1019E92
:10644000A948B168082201311EF0B5FF304616F0A8
:1064500051FE214601AA41F2010005F06DFC0446FF
:1064600078BB019883685A7885F868205A88A5F81F
:106470006A201A7985F86920B3F80720A5F86C20FE
:10648000B3F80530A5F86E3016F034FE214601AAA7
:1064900041F2020005F050FC044690B9019E934879
:1064A000B168402201311EF086FF90481FF00AF8C3
:1064B000304616F01FFE95F874305A0604D46FF07B
:1064C0001204204602B070BD214601AA42F2030028
:1064D00005F032FC04460028F3D1019E8448B168DF
:1064E000082201311EF067FF304616F003FE2146F8
:1064F00001AA42F2020005F01FFC04460028E0D188
:10650000019CA368B3F80120A5F8FC2091B221B149
:10651000DA787848114622F05FFE204616F0EAFD50
:1065200095F8746016F0200618D1022140F66D40EF
:1065300005F0A6FB0446002800F0CC8002210830BC
:1065400021F0BAFE0123037046702146324640F620
:106550006D4005F0F1FB04460028B2D195F8943067
:106560001B0712D501AA002142F21C0005F0E4FB32
:1065700004460028A5D101988368D3F80120D3F8F8
:106580000530C5E9362316F0B5FD95F8D0309E06E6
:1065900024D50DF1020168461FF02CFA04460028AC
:1065A0008FD1042142F2240005F06AFB0646002840
:1065B00000F090800421083021F07EFEBDF800300C
:1065C0000380BDF8023043802246314642F2240067
:1065D00005F0B2FB044600287FF473AF95F8D03085
:1065E0005C0610D501AA002142F22A0005F0A4FBA6
:1065F000044600287FF465AF019883685B7885F8CE
:10660000183116F077FD082142F2010005F038FB41
:10661000044600285ED00821084421F04DFE95F87C
:10662000D01011F0400F024640F2022308BF0323AE
:1066300088074CBF43F02C0043F00C008B0695F804
:10664000D13048BF40F0400013F0090F95F89A3060
:1066500018BF40F4006003F00603CE0748BF40F0C7
:106660001000062B08BF40F4C07000211FF0A2F8F4
:106670002146002242F2010005F05EFB044600289C
:106680007FF41FAF95F87430B5F8FC10980624D449
:10669000C9B901AA41F2050005F04EFB04460028E5
:1066A0007FF40FAFB5F8FC30019C4BB9A368B3F889
:1066B0000120A5F8FC209A880E48114622F08CFD96
:1066C000204616F017FD082140F6014005F0D8FAE3
:1066D000044688B96FF06804F3E60029F3D16FF03F
:1066E0000404EEE600000020700000207800002086
:1066F000D0000020000100200821084421F0DCFD2A
:1067000095F8D030D907024657D431484FF00051A0
:106710001FF050F82146002240F6014005F00CFB26
:10672000044600287FF4CDAE014601AA4FF6014091
:1067300005F002FB044648BB019816F0DBFC21463D
:1067400001AA4FF6024005F0F7FA0446F0B9019E9F
:106750002048B168022201311EF02DFE304616F0AD
:10676000C9FC95F8B9305B0710D501AA21464FF650
:10677000034005F0E1FA48B9019C1748A1680122DD
:1067800011441EF018FE204616F0B4FC1FF035FB35
:10679000044600287FF495AE07F01EFA0446002850
:1067A0007FF48FAEEB79002B3FF48BAE08210B48C2
:1067B0001EF047FF05F0B8FD83E603A1D1E9000113
:1067C000A6E700BFAFF300809088000200800020A1
:1067D00010880002B9000020B8000020CC00002082
:1067E0002DE9F843D0E90B35D0F828805C19303416
:1067F000A0450F46164619D81D4DA3FB05011AA347
:10680000D3E90023FFF77CFC0346A4EB0800A0FBC0
:10681000050123F07F4414A3D3E90023FFF770FCA4
:1068200020F07F403C603060BDE8F883DFF84090A6
:106830000DA3D3E90023A8FB0901FFF761FC04467F
:1068400005F1300008A3D3E90023A0FB0901FFF7FD
:1068500057FC24F07F4420F07F403C603060BDE86E
:10686000F88300BFAFF300808D49FD1A07000000D8
:1068700000CA9A3B00000000002800F0BC812DE90E
:10688000F04F264D95F86A30D9078FB000F1ED81B1
:1068900095F8292095F8353005EB820205EB830346
:1068A000D76AD3F8388077B33E4616F8020BC0F3A8
:1068B00080100BF003FD06220146044605F16B0033
:1068C0001EF079FD0622214630461EF074FD3B780D
:1068D0005A0606D5062130460AF074FA002800F060
:1068E000C681464616F8020BC0F380100BF0E6FC9A
:1068F0000622014604460A481EF05DFD2146304648
:1069000006221EF058FD3B7813F00E0F40F00C816C
:106910002B6A3BB10C200FB0BDE8F08F2041002066
:106920008B4100200DF09EFB8146002800F0AC81D9
:106930000DF0A4FB8246002800F0A3810FF0C2FBFB
:106940000446002800F0A2814FF6FF73406F2385B4
:1069500004F11C030B93002800F08F8104F16802FE
:1069600004F164010AF03AFAB4F8603094F87A203D
:10697000DFF834B323F4EF6323F0070343F48873A1
:1069800043F00103A4F8603094F8393022F0070294
:10699000594684F87A2003F03F0394F83C2063F0D2
:1069A0007F0384F8393022F0070211F8013B84F8A4
:1069B0003C2094F8D62003F0010363F300020B930C
:1069C000BA4B84F8D620002606224FF01B10C4E9EB
:1069D0001603A4F8C020C4E912666667A4F87860BC
:1069E0006686C4F82E6084F83B602665A4F8C4600F
:1069F000A4F8C860A4F8D060A4F8CC6004F1D70073
:106A00001EF0D9FC94F8D6000B9B63F341000622DC
:106A10000BF1010184F8D60004F1DD001EF0CBFC7F
:106A200094F8E43084F8F26023F0070384F8E4304B
:106A300094F81A31A4F8F06066F3041384F81A315C
:106A4000C4F81461A4F81861A4F830610CF052FE87
:106A500094F84A31A4F8486123F0030384F84A31DA
:106A600094F87A30A4F8506123F0180384F87A304F
:106A700094F8763184F8536123F0070384F8763173
:106A800094F89631C4F8549166F3861384F89631DD
:106A900094F8C631A4F8746166F3C303002284F845
:106AA000C6310023C4E94E01C4E9502384F8E560EF
:106AB000A4F89461A4F8A661C4F8EC60A4F8C461D9
:106AC000A4F8D0610FF064FEA4F8D2000FF066FEC7
:106AD000D4F8D421764BA4F8D4001340C4F8D431B0
:106AE0000FF062FE94F8D83160F3020384F8D831D5
:106AF0000FF060FE04F11C032B6294F8D831C4F847
:106B0000DC6160F3C503C5E9189AC4E97A66C4E993
:106B10007866C4E905662670E46184F8D83114F01B
:106B20008BF9002840F0A58095F824300121C3F3AB
:106B300042030DF133008DF833300AF0D9FA0246E2
:106B400000285AD098F8011038460EF0AFF959498C
:106B5000B5F8686000243123AB60C5E9054450A353
:106B6000D3E900232C706C60EC60A0FB0101FFF7FF
:106B7000C7FA28610BF078FB80463EB93C7804F0F8
:106B80000F04A4F10104B4FA84F4640995F8240014
:106B90002B6964F3000010F0010485F8240033D061
:106BA0000020454A454F049302240DAE01930592FF
:106BB0000321CDE902000896069543460090079709
:106BC00022460D940BF082FA31460DF003FBA0B97A
:106BD0003B4905914AF2D8330093CDE90300CDE952
:106BE00001000797089606954346012203210D945C
:106BF0000BF06CFA2EE00EF0ABB82B6A002B3FF4D2
:106C000089AE0EF063F885E62E4A2F48049303F20E
:106C100047130695029491211360A6FB000301FB24
:106C20000631264B0793244B05934FF6FF730992C9
:106C3000022703930DAE1AA3D3E900230D970896FC
:106C4000FFF75EFA4346CDE900403A46204603216D
:106C50000BF0E6F931460DF0BDFA0028CDD195F8DC
:106C60006A3043F0010385F86A30002053E61220B1
:106C700051E60EF02BF803204DE604F16C0060673E
:106C80006CE648460DF0F4F9072044E650460DF056
:106C9000FBF948460DF0ECF9F6E700BFAFF30080D2
:106CA0008D49FD1A07000000FEB9040048014801A3
:106CB0000000FFF600CA9A3B1D4F03009537030002
:106CC0006D4A030014410020002AE7840000000000
:106CD00070B590F824308AB0C3F342030D460446E1
:106CE00001210DF1230016468DF823300AF000FA39
:106CF0007178024628460EF0D9F81D491AA3D3E947
:106D00000023A0FB0101FFF7FBF923699842054628
:106D100021D21B1A00220192164A0293164BA21A84
:106D2000A3FB02320221920900230A4409AE099111
:106D300012490591CDE903330321D2B2069600939F
:106D400018460BF037FA31460DF044FA38B9256190
:106D500000200AB070BDFBD9C21A0023DBE70C206B
:106D60000AB070BDAFF300808D49FD1A0700000026
:106D700000CA9A3B2041002009CB3D8D9537030086
:106D80002DE9F04FC38D468EB0F8F4701E4490F894
:106D90001A31B6B2314413F007038BB004461FFA20
:106DA00081F940F08D81A9EB07011FFA81F90904EF
:106DB00000F1E781904690F93920002AC0F249811C
:106DC00094F8F03084F8F13094F8942194F89531E7
:106DD00094F8181184F81911934206D094F896315A
:106DE00003F00F03062B00F03C82A74BD4F814519C
:106DF0001A68944204BF00221A60002D00F031810D
:106E00002B68002B00F02D815B68628DC4F8143173
:106E1000B4F81C31934205D1B4F81E11A28D9142F1
:106E200000F00382238DEB8019232B7100232B7735
:106E3000B4F81C31EB83B4F81E312B84B4F8203144
:106E400028686B8429460DF025F90DF02DF9A3680B
:106E5000002BC0F2F280B4F82AC0B4F81C511CFB1D
:106E600009FC1FFA8CFCBCFBF5F315FB03F080B2A8
:106E700084451FFA83FA80F0CE80A0EB0C0040F22C
:106E8000E242824902FB00F0A0FB01017CA3D3E9AE
:106E90000023FFF735F920F07F408044E38D1F4445
:106EA000BF1B94F939305744E785002B40F2E24785
:106EB00007FB05F6C0F26881754A764976484FF4BB
:106EC00058631CF0A0FB404080F311884FF0030092
:106ED00002DF0027B346714AD4F81C11B4F8203100
:106EE0006F48C4F82A103244B2FBF6F2A4F8C62068
:106EF00042F21072090C02FB03633044013BB0FB09
:106F0000F6F0B3FBF6F3A4F8C23083B2881D8342D7
:106F1000A4F8CE3004DDC1F57F41FA310B449BB2B9
:106F2000A4F8CA3094F81A311B0744BF0023A4F810
:106F3000C4300221012015F063FE002202218246A6
:106F4000012009F09BFF57494FF4FC72204609F0DD
:106F500025FF00F103095FFA89F9534B00944A4673
:106F6000012100200BF03EF930F002030CD0484A1A
:106F70004E49494840F6AF531CF045FB404080F372
:106F800011884FF0030002DF404EABFB066B3CA3C1
:106F9000D3E9002330465946FFF7B2F80894069427
:106FA00023690493424B20F07F45A5FB0331F01A7F
:106FB000404B07934FF007023F4B059302FB05112F
:106FC0004FF6FE736BEB010103934FF47A720023CB
:106FD000FFF796F84346CDE9015000974A46012154
:106FE00000200BF073F830F002030CD0284A2F4930
:106FF000294840F6C9531CF006FB404080F3118835
:107000004FF0030002DFBAF1000F40F008810020CA
:107010000BB0BDE8F08F05FB13C11C4840F2E24302
:1070200089B203FB01F1A1FB000115A3D3E9002301
:10703000FFF766F8A8EB000830E7E168626823F024
:10704000004391422CBF88449044A360A8EB0308FE
:1070500001E790F8E520002A3FF4B2AE80F8E53071
:10706000B2E60B4A15490C4840F6FA431CF0CBFA3D
:10707000404080F311884FF0030002DF2B68C3E625
:107080008D49FD1A070000003447002000CA9A3BD2
:1070900074AD040024A90400C4A80400FF596202CE
:1070A0007FC3C901B0210020F558030054AE04008D
:1070B0008D49FD1A9D5803003DA0030040AE040019
:1070C00001200CF0F7FF0646002800F0DC807C4829
:1070D00009F02CFE0546002800F0D580794B1A688F
:1070E000002A00F0C7800DF007F83368D4F81421A7
:1070F0005A60C4F814612B79002143F003030C2279
:107100006A712B71E97194F828312B72D4F824310B
:107110006D4AA2FB03239B0AA5F80930B4F81C3181
:10712000A5F80B30B4F81E31A5F80D30B4F82031B5
:10713000A5F80F30A38D94F81A2106334B4461F360
:1071400002029BB284F81A21A4F8F430A5F8113099
:1071500094F81A31D4F8E021D4F8DC1143F010038C
:1071600084F81A31002A00F08780D4F8E4311B68D3
:107170002B60D4F8E4311D60C4F8E4512B68002B77
:107180007ED06FF0760043E7226CA36C02FB1933CC
:10719000A36413F0A1FE054694F8E400C0F3C20016
:1071A00013F09CFE054406FB05F5484B94F8282196
:1071B00005F5742505F23F25A3FB0535AD0C07FB4E
:1071C00002F2A36C226505FB0AF072080344963AAA
:1071D000934228BF13462564A6EB050B3C4DC4E93A
:1071E00011230023C4F8EC30A0FB050132A3D3E93E
:1071F0000023FEF785FF344BA8EB0008D4F82401E8
:10720000A3FB0030800A07FB00F02BA3D3E9002387
:10721000A0FB0501FEF774FF20F07F475BE601222B
:107220000221104609F02AFEF1E640F2E241B4F8EC
:10723000202101FB03F342F2107101FB0232013AFB
:10724000B2FBF3F3B4F8C2209BB29A427FF4EAADEA
:10725000012328682B7129460CF01CFF0CF024FF39
:10726000F5E5B4F8A6318BB984F895210023A4F88C
:10727000C830BAE51C6036E72960C4E977557BE77A
:10728000C4F8EC517DE76FF06800C1E6A4F89E31C8
:10729000B4F8963103F0C00343F01003A4F896311C
:1072A000D4F8A031C4F89831B4F8A431A4F89C31D2
:1072B0000023A4F8A631D9E78D49FD1A0700000084
:1072C0009C420020344700205917B7D183DE1B436E
:1072D00000CA9A3B000000002DE9F04F0B681468CB
:1072E000D3F80090037F93B0C3F3801B05460F468D
:1072F000164600F11E01062210A8CDF82CB01EF093
:107300005AF810A906220EA81EF055F895F81C8010
:10731000D5F800C0CDF828C04FEAD81809F16B0A9B
:107320000EAB5A46514640460FF04AFA00284CD15F
:1073300094F8D6200C906BF3410284F8D6200EA965
:10734000062204F1DD001EF036F894F8D62068F32A
:107350000002514684F8D62004F1D70006221EF020
:107360002AF806F10408032205F12E0106F10800AF
:107370001EF021F806F1180A042205F12A01404600
:107380001EF019F8052205F13A0150461EF013F8D7
:107390000521504609F0ACFE727F00F03F0060F31B
:1073A0000502727795F83F20C2F30401B177A98EE8
:1073B000F181012802F01F0289B206D91B3202F0C6
:1073C0001F020B2A01D80C9BC9B90022C9F814204E
:1073D00096F820300A9862F3000386F82030EC68B3
:1073E000012629462E710CF055FE20682671214693
:1073F0000CF050FE0CF058FE13B0BDE8F08F3A6868
:107400005360EB8E338295F83F3094F8E420B6F861
:107410000EA05B0963F3C5026B8E84F8E42040F292
:10742000E24202FB0AFA0D9313F056FD834694F8EC
:10743000E400C0F3C20013F051FD0BEB00030AFBA4
:1074400003F3AF4903F5742303F23F23A1FB0313B6
:107450009B0C73624FEA5A03963BB36295F8313046
:1074600040F2E24202FB03F3B363B5F838B0A54A39
:10747000A54B42F210715244B2FBFAF2A4F8C620B6
:107480001FFA8BF201FB02A25344013AB3FBFAF359
:10749000B2FBFAF2A4F8C2209AB2A4F8CE20318A44
:1074A000881D824204DDC1F57F41FA310A4492B25F
:1074B000A4F8CA204146042204F1E8001DF07BFF35
:1074C0002B4613F81C2FC2F340120C92DA0700F17E
:1074D000DD809DF82C30AB774FF4807306220EA927
:1074E000AB8305F11F001DF066FFF389EB84338A3F
:1074F0002B85A5F82AB094F8E430C3F3C20385F8CD
:107500002C3020460EF0EAFDB081E88029460A982A
:107510007D680CF0BFFDB3890C9AEB801C232B71A6
:107520002B68002A40F0C780DDF830B085F81CB029
:10753000184629460CF0AEFD0CF0B6FD96F8450055
:10754000B6F84080B6F84250012100F0070013F071
:10755000D7FA454405F56175291883466B484FF005
:1075600000083123A360A1FB000163A3D3E900233A
:10757000C4F80480C4F80C80FEF7C2FD20F07F4000
:1075800020610D99FB68756A40F2E24202FB01330B
:1075900003F2B243A3EB0B034246022101200A93FC
:1075A00009F06CFC48460DF069FE821C584BCDF882
:1075B0000090D2B2404601210AF014FE0128AAEB45
:1075C000050500F0858099F82430DB076BD4204650
:1075D0000EF084FDDFF83491A5FB098546A3D3E9BD
:1075E0000023824629464046FEF78AFDBB68494A89
:1075F00007920AF10307A3F1490A474B069420F0CA
:107600007F46A6FB0331B8EB0300444B05934FF4D0
:10761000EB73089323694FF0000BCDE903B34FF0F0
:10762000070303FB061165EB01014FF47A72002397
:10763000FEF766FD0A9BCDE90160A3FB09012EA3BD
:10764000D3E90023FEF75CFDFFB220F07F400090FD
:1076500053463A46012158460AF038FD30F00203FD
:107660000CD02F4A2F49304840F2D7131BF0CBFFE4
:10767000404080F311884FF0030002DF0122022115
:10768000104609F0FBFB13B0BDE8F08F244A2749F0
:107690002548FF231BF0B7FF404080F311884FF0CF
:1076A000030002DF15E7002301220093184611466C
:1076B0000AF098FD8BE7727F0A9342F04002404641
:1076C000727712F0DFFD4FF0010B0A9BF0832DE77C
:1076D0000CF0C0FD81453FF476AF114A14491248C1
:1076E00040F2A1231BF08FFF404080F311884FF040
:1076F000030002DF67E700BF8D49FD1A07000000A5
:1077000083DE1B43FF5962027FC3C90100CA9A3B53
:1077100001A00300D19F03008D49FD1A3DA0030085
:1077200098AF040054AE0400C4A80400B0A904003B
:10773000F4AF0400000000002DE9F04F8FB0DFF837
:10774000D8800B900DF137010DF136000CF01CFDC7
:10775000324F9DF836A09DF837B00AF085FDD8F875
:1077600000400A90A4FB075429A3D3E90023002674
:1077700021462846FEF7C4FC0B9B0693CDE907661D
:10778000274B05938146D8F8040021A3D3E90023B1
:10779000A0FB0701FEF7B4FC224B29F07F47A7FBB3
:1077A000033120F07F400722CDE9036002FB07117F
:1077B000E81A64EB01014FF47A720023FEF7A0FC93
:1077C0000A9B0096CDE901705A46032150460AF003
:1077D0007DFC30F0020416D1134A144800231AF03D
:1077E000D3F868B19DF837209DF836000094234601
:1077F00003210AF0F7FC6FF073000FB0BDE8F08FC3
:10780000D8F80C00F9E76FF08B00F6E7AFF30080D3
:107810008D49FD1A070000002C54002000CA9A3B35
:107820007DEC03008D49FD1A447B0B0014540020AD
:1078300038B50F4D04460AF017FDA9680AF016FD89
:107840006968B0FBF4F404440A4807A3D3E90023B1
:10785000A1FB0001FEF754FC20F07F40844294BF5E
:107860000020012038BD00BF8D49FD1A070000002F
:107870002C54002000CA9A3B01481AF0FDB900BF01
:107880006802002007B521F01BFF4FF47A72A0FBBD
:10789000020302FB0131C00B074A40EA414010607D
:1078A00000234FF400420548CDE900231AF0A8FF59
:1078B000002003B05DF804FBF02D0020280D00200F
:1078C00008B5044B187800F087F9BDE808401BF0B4
:1078D0009CB800BFF6570020044B1A78824202D0B1
:1078E0001870FFF7EDBF0020704700BFF65700206B
:1078F00008B521F0E5FE4FF47A72A0FB020302FB0B
:107900000131C00B044A40EA41401060BDE8084024
:107910000020FFF7E1BF00BFF02D002008B521F0E7
:10792000CFFE4FF47A72A0FB020302FB0131084A3A
:10793000C30B126843EA41439B1A47F23052934209
:1079400004DDBDE808400120FFF7C6BF08BD00BF49
:10795000F02D002030B5194C8DB00022002303A972
:10796000204619F0A7FE08B10DB030BDDDE90415C1
:1079700003981BF048F80028EFDBFF238DF8183040
:10798000B5FA85F35B0907908DF8203021F098FE59
:107990004FF47A72A0FB020302FB0131C00B40EAF4
:1079A0004140C90B8DE8030006ABCDE90A010FCBBE
:1079B00000F01EF91BF029F8CFE700BFA40E00204D
:1079C0001FB583F00103CDE90112039300220023C8
:1079D00001A9044819F018FE03481AF04DF905B042
:1079E0005DF804FBA40E0020F42D002010B5044621
:1079F00078B10949094821F071FCA36808491B685E
:107A000020469847A3689B680BB120469847002002
:107A100010BD6FF01500FBE755790200F42D002032
:107A2000C17902002DE9F041134B144EA3EB060877
:107A300007460D4606EBC106C8F3C708A84506DC95
:107A40000024384621F0E7FF2046BDE8F081326887
:107A50003B689A420BD13D71736838461B68984762
:107A600001280446ECD0022804D00028E9D10135D1
:107A70000836E3E70024E7E730BE040000BE040058
:107A800000B58BB0064B074A2821684603F0E8FB97
:107A900005490122684602F069FC0BB05DF804FB61
:107AA000BCB50400C6B50400F75700202DE9F0412D
:107AB000466807693179F38804463068D0F810E0E9
:107AC000D0F80880DEF80050DA0754BF43F4B01352
:107AD00083F4D0134FF0010C23F480120CFA01FC54
:107AE000DB074CBF45EA0C0525EA0C05CEF8005033
:107AF000D8F80030984760BB02F08CFD164802F0C1
:107B0000C5FC054610BB1549154821F02BFC15484E
:107B100002F066FC7B785BB901233B7000220023F6
:107B20000F481AF011F9A3681B680BB1204698475B
:107B3000318959B140F2E7304FF47A72002300EBFB
:107B4000C1300021FEF7DCFA1AF004FC2846BDE83B
:107B5000F0816FF00405F9E778020020817A0200D5
:107B600010110020D9B5040008B54FF4F01200231D
:107B700002481AF01DF900EAE07008BD101100205B
:107B8000F7B50C461646114901AA1F461CF086F8A7
:107B9000B0B1019BA3B9012C15D10D4D2246294648
:107BA0003846B047002806DB2B780A486C7023B1B2
:107BB0001AF041FF002003B0F0BD1AF04EFFF9E7C4
:107BC0006FF00100F7E76FF01500F4E7BCB50400B3
:107BD000F75700200C9C040010B504460C2021F03F
:107BE00021FF024A0260047210BD00BF54A00400CD
:107BF00084B070B504AC84E80F00202021F012FF9F
:107C00000446084B44F8083B04AD06460FCD0FC4AC
:107C100095E8030084E803003046BDE8704004B0F6
:107C2000704700BF58A004000268034B9A420CBF83
:107C300008300020704700BF58A0040010B504466B
:107C40000C2021F0EFFE024A0260047210BD00BF5A
:107C500060A0040082B038B504A981E80C00054694
:107C6000114819F0B5FA0446A0B16B68012B0CD08D
:107C7000022B05D0A3B9BDE8384002B01AF013BFFB
:107C80001AF018FF00282046F5DCBDE8384002B0A5
:107C90001AF002BF6FF00400BDE8384002B0704730
:107CA0006FF08500F8E700BFBCB5040082B010B5E6
:107CB00002A981E80C0004460B4819F089FA78B152
:107CC0006368022B04D00020BDE8104002B070476A
:107CD0001AF0F0FE0028CCBF002001206060F2E71F
:107CE0006FF00400F0E700BFBCB504000D4A52F885
:107CF0002030013342F820300B4A012311788340B1
:107D00000B430A490978DBB2137023EA01030849DF
:107D1000084A097850780B43181A537018BF01208D
:107D2000704700BF042E0020FB570020F9570020A9
:107D3000FA570020BD0C002010B5114A52F820302F
:107D4000002B19DD013B42F820300E4A2BB9137885
:107D50000121814023EA010313700B480B4B047887
:107D600010780B4A5978127820EA040010435870B2
:107D7000401A18BF012010BD6FF01500FBE700BFCF
:107D8000042E0020FB570020F9570020BD0C0020D6
:107D9000FA57002010B5084B084A1870084B517864
:107DA0001C78084B1B7823EA040318435070401AD0
:107DB00018BF012010BD00BFFA570020BD0C0020E5
:107DC000F9570020FB570020074B00221A70074B81
:107DD000074A1978074B50781B7823EA0103181AD1
:107DE000537018BF01207047FA570020F957002040
:107DF000BD0C0020FB570020A0F1E003072B03D8A7
:107E00002030C0B2FFF772BF064B062213F8011FE5
:107E100019B1013AFAD10020704718700028F8D043
:107E2000F9E700BFBF0C0020A0F1E003072B10B45E
:107E300004D8203010BCC0B2FFF77EBF0023064A32
:107E4000194612F8014F0133A04208BF1170062BEA
:107E5000F7D1002010BC7047BF0C00200248082258
:107E600000211DF0B3BA00BFBE0C002010B50849B8
:107E7000002301EB4302B2F8014024B10133062B89
:107E8000F7D1002010BDA2F801000028F6D0F8E7D5
:107E9000B00C002030B50023074C194604EB430218
:107EA0000133B2F80150854204BF51709170062B26
:107EB000F4D1002030BD00BFB00C002002480C22DD
:107EC00000211DF083BA00BFB10C002000487047AC
:107ED000BD0C002000487047B00C002008B5FFF72B
:107EE000F5FF094A127822B1012A07D06FF0850008
:107EF00008BDBDE80840092100F05ABDBDE80840B2
:107F0000013000F063BC00BFC60C002008B5FFF7CD
:107F1000E1FF094A127822B1012A07D06FF08500EB
:107F200008BDBDE808400D2100F042BDBDE8084095
:107F3000013000F071BC00BFC60C002002490348AC
:107F4000012202F013BA00BFFC5700207DB60400E6
:107F500010B502F05FFB074802F098FA044630B90A
:107F60000548064921F0FEF9054802F039FA204695
:107F700010BD00BF90020020401100203D7F020094
:107F800091B6040038B500F05FFAC8B100F0DAFC31
:107F900002281BD10F4B1C780F4D2B78A34217D012
:107FA000FFF75CFFFFF78AFFFFF798FFFFF7AEFFD1
:107FB00020462C7000F030F8BDE838401AF025BD9E
:107FC00000F0C0FC841E18BF0124E5E70124E3E7AC
:107FD00038BD00BFFC570020C60C002070B50C4611
:107FE00015460B4900221E461BF058FE08B900201A
:107FF00070BD012C08D1074922463046A847002809
:10800000F6DDFFF7BFFFF2E76FF01500F0E700BF06
:1080100087B60400FC57002010B504460C2021F060
:1080200001FD024A0260047210BD00BFC0A004003E
:108030001FB520BBF9B113490B6843F001029A4206
:108040000A6018D04FF48073ADF8003021F038FB8F
:108050004FF47A72A0FB020302FB0131C00B40EA2D
:108060004140C90BCDE9020104AB13E90F0000F058
:108070007BF81AF0CAFC002005B05DF804FB6FF035
:108080001500F9E7282E00202DE9F04F9A46234BE2
:10809000884615468A180C2101FB023393E8070035
:1080A0008DB005AC84E80700DDE9166719F090F89B
:1080B000814670B3CDE90885CDE90A67059819F0C6
:1080C00087F88368D3F804B0BBF1000F09D00CAB7C
:1080D00013E90300DDE908238DE803002046D847B3
:1080E000A0B9D9F808301B78022B14D8CDE908853F
:1080F000CDE90A670CABCDF808A013E903004246AE
:108100008DE803002B4620461AF0D4FD0DB0BDE8E3
:10811000F08F0120FAE76FF08500F7E7CCA00400AC
:1081200073B50F4B06460C4615461AB10D4A126838
:1081300043F8212053F8241000201AF0ABFD58B169
:10814000DDE906230021CDE9002330462B462246F7
:10815000FFF79AFF002801DD6FF0850002B070BDC7
:10816000242E0020282E00207FB56C4684E80F00C6
:10817000182021F057FC0546054B45F8083B0646FC
:1081800094E80F0085E80F00304604B070BD00BFD2
:10819000D8A0040084B070B504AC84E80F0020209F
:1081A00021F040FC0446084B44F8083B04AD064669
:1081B0000FCD0FC495E8030084E803003046BDE806
:1081C000704004B0704700BFE0A004000268034B99
:1081D0009A420CBF08300020704700BFE0A00400A6
:1081E00013B56C4684E80300102021F01BFC024606
:1081F000054942F8081B034694E8030082E803009F
:10820000184602B010BD00BFE4A0040007B5094B3A
:108210001A78094B8DF80020162102FB01330193D7
:1082200002AB13E90300FFF7DBFF03B05DF804EBDB
:108230001AF0EBBBFD570020FE570020024903480F
:10824000012202F093B800BFFD57002027B70400B9
:1082500070B503788AB004460E4607AD032B20D8CC
:10826000DFE803F002191B1D114928461DF062F8D2
:10827000059563780493A3780393E37802932379B5
:10828000019363790093A3790A4A1E2130461AF0BC
:10829000C7FE0AB070BD0849E7E70849E5E70849A5
:1082A000E3E7084A0A2128461AF0BAFEE0E700BFD1
:1082B0003AB7040063B7040041B7040048B70400AC
:1082C00052B704005CB704002DE9F0418AB00D46B6
:1082D00016461F496A4604461F461BF0DFFC08B3DA
:1082E0000098F8B10A2201A91CF01CFF019B1B7821
:1082F0005BBB162D29D1C4B2042C26D8DFF85480DC
:108300006C432A4608EB04013846B047002806DDD6
:1083100004F10F0002A94044FFF79AFF00200AB0C1
:10832000BDE8F0810C496A4620461BF0B7FC0028E6
:10833000F4D0009B002BF1D1012D06D107492A462C
:108340003846B04700EAE070E9E76FF01500E6E76D
:1083500086B70400FE5700202BB70400FD5700200D
:1083600010B590B004461EF020F86946FFF770FF84
:1083700008A9204605F078FA9DF82130012B14D188
:108380000B4819F079FC20461EF00FF8094B1978BC
:108390000F22162313FB01230749072219441CF05F
:1083A000FAFF10B9054819F067FC10B010BD00BF06
:1083B00008030020FD570020FE570020180300206E
:1083C00008B5084B084819780F22162313FB012320
:1083D0001844064907221CF0DEFFB0FA80F040097D
:1083E00008BD00BFFD570020FE57002005BA04005D
:1083F0002DE9F04104468CB00D464FF016080F4FA2
:1084000004A9284614FB08F6FFF722FF06F10F0027
:108410002946072238441CF0CEFF22460849684608
:1084200002F038FF4246B919684601F09FFF05483F
:1084300019F022FC0CB0BDE8F08100BFFE5700200F
:108440008FB704001803002010B5124B12491A7898
:1084500016240F2314FB0234104B1C4488B007224F
:1084600020461CF098FF10B9002008B010BD21462E
:10847000002005F0A7F904460028F5D0694605F06C
:10848000F3F920461DF0CAFE9DF81C00831E5842D9
:108490005841EAE7FD57002005BA0400FE570020C6
:1084A000F0B58DB0FFF78CFF98B9FFF7CDFF80F0E6
:1084B00001035B00DBB2214D2A7803EB0213112B81
:1084C00009DC022B2DD0102B23D0002420460DB028
:1084D000F0BD0223EFE7202B1BD0122BF5D104F0C7
:1084E00065FC00232B7004460028EFD1144F0FCFFA
:1084F00002AE0FC63B681349336004220094234642
:1085000002A804F021FC04460028DFD102232B70CE
:10851000DBE704F04BFC00232B7004460028D4D08A
:10852000D4E7074E0FCE07AC0FC433682360002397
:1085300004490093042207A8E3E700BF6C58002019
:10854000A09F0400E8A0040030B591B005461DF0DE
:108550002CFF69460446FFF77BFE08A9284605F074
:1085600083F99DF82130012B05D1FFF729FF214622
:1085700018B903F0AFFD11B030BD034B1878FFF709
:1085800037FFFFF78DFFF6E7FD57002030B591B0BC
:108590000D4608A9044605F067F99DF82130012B26
:1085A0000BD120461DF001FF6946FFF751FE114B2C
:1085B00000221A701DB1FFF773FF11B030BD022108
:1085C00020461DF098FEFFF76BFF20461DF0EDFEE4
:1085D000094B19780F22162313FB012307490722A1
:1085E00019441CF0D8FE0028E7D1054819F044FBD7
:1085F000E3E700BF6C580020FD570020FE57002025
:10860000180300207FB5002003F0A0FE044660BBE5
:1086100002F000F8164801F039FF044628BB15495E
:108620001548164E20F09EFE154801F0D9FE15485B
:1086300001F0D6FE2146204603F04CFD25462A4691
:108640003146684602F026FE013568461BF022FBE3
:10865000052DF4D10C4805F091F80C4805F08EFA80
:108660000B4805F0A5FAFFF71BFF204604B070BDCC
:10867000F00200203D820200701100208FB704003C
:108680009FB70400A3B70400D4020020B802002062
:10869000A8020020044B054819780F22162313FB6B
:1086A00001231844704700BFFD570020FE570020EB
:1086B0001FB54D240294044C0194BDF81840009459
:1086C0001EF032FF04B010BDCDB7040007B5064B55
:1086D00000930649064805234FF4007219F0D2FAB8
:1086E000002003B05DF804FB08A1040040590020FD
:1086F000A011002010B5FFF7CDFF06490722044660
:108700001CF049FE28B121460020BDE8104005F0CC
:1087100059B810BD05BA0400F0B5134E134F89B017
:10872000002200236946304618F0C4FF054608B110
:1087300009B0F0BDFFF7DEFF04460028F8D018228C
:10874000294602A81CF042FE08230DEB0301204637
:108750000397CDF810D0ADF8143006F0E9FF2046AD
:108760001DF05CFDDCE700BF740E002074A1040066
:108770002DE9F041134FDFF850808AB001AE00229E
:1087800000233146384618F095FF054610B10AB06F
:10879000BDE8F081FFF7AEFF04460028F7D01822AD
:1087A000294604A81CF012FE0C2304A92046CDE99A
:1087B0000586ADF81C3006F0BBFF20461DF02EFDEF
:1087C000DDE700BF440E0020D8A1040037B5054600
:1087D00040F6CD42014600230C4818F015FF044630
:1087E00078B110F10B0F09D1002200236946074828
:1087F00018F060FF2846FFF7E9FF0446204603B063
:1088000030BD0349034820F096FDF7E7740E0020C1
:1088100038030020A011002030B5054685B040F691
:10882000CD42014600230D4818F0EEFE044678B113
:1088300010F10B0F09D10022002301A9074818F0FD
:1088400039FF2846FFF7E8FF0446204605B030BD53
:108850000349044820F06FFDF7E700BF440E0020F5
:1088600028030020A011002010B504460C2021F0A0
:10887000D9F8024A0260047210BD00BF3CA2040095
:10888000014819F0F9B900BFF003002037B50F4CCB
:10889000A5682C21EB6820469847A0B92C212B69AC
:1088A0006A462046984770B9094C009B22789A4244
:1088B00009D0D8B2207000F059FC20B92078FFF719
:1088C000D3FF1AF0A2F803B030BD00BF3C9C0400F7
:1088D0006E58002013B50B4820F085FA70B1FFF7F1
:1088E000D5FF044638B94FF4F01200230648CDE90D
:1088F000002319F085FF204602B010BD6FF012046E
:10890000F9E700BF3C9C0400600D0020024B18708A
:10891000024819F0B1B900BFD60C002000040020B5
:1089200008B5044801F03CFA002818BF6FF01500A4
:1089300008BD00BF0D890200014B1878704700BFC9
:10894000D60C0020084B1B780B2B4FF001000AD8E7
:10895000984010F41A7F05D110F4016F0CBF01206C
:108960000020704702207047D60C002010B509483F
:10897000094C18F02DFC206048B1084B08494D22E5
:1089800014F090FC20681FF0DEFC002010BD6FF09A
:108990001500FBE734B804002C2E002040A2040090
:1089A0003AB80400014818F0C9BF00BFD40E002037
:1089B00038B504460D46FFF7BFFF0B280BD8DFE89C
:1089C00000F01E1E0A0A1E060A0A0A0A0A1EBDE84E
:1089D000384001F0AFB94FF476720023094818F01F
:1089E000D3FF09482146006800232A461FF0B5FC42
:1089F000044610B1034818F0A1FF204638BD6FF0BF
:108A00001204FAE7D40E00202C2E00200148FEF7B5
:108A1000EDBF00BFCC9C040010B5094C0A44914244
:108A200000D110BD11F8013B584003090001E35C7F
:108A3000C0B2434018091B01205CDBB25840EEE78E
:108A400087B80400014B1B68184700BF10040020C2
:108A500007B50B46002102460091034800F02AF9B1
:108A600003B05DF804FB00BF458A020030B587B053
:108A70000025CDE903010446009503A905480595A5
:108A800000F018F9DDE904309842B8BF255407B06A
:108A900030BD00BFE12F04002DE9F047058B0446EF
:108AA0002807904611D4022905F0070540F0CD8033
:108AB00020461AF0DDFA78B10138218B042811D84C
:108AC000DFE800F0C3106D85950001290CBF45F06B
:108AD000100545F02005258388F31188BFF36F8FBB
:108AE000BDE8F08701F0070AAA4500F0A68000273C
:108AF000B9463E46A368002B00F0BD8041F0080156
:108B0000218388F31188BFF36F8FA168002900F0DB
:108B1000BB800D68002900F0B780D1F8048033468F
:108B200052462046C047002D76D02B6829461D4668
:108B3000F0E701F007035A1F012A1BD8002221F099
:108B40000701062B276889B2C4E9002209D13B46F8
:108B500003E0628B013262831B68002BF9D141F084
:108B60000201218320461AF083FA00287BD041F0CD
:108B7000200177E0042B0AD121F0070189B221837B
:108B800020461AF075FA10B141F020012183218BA3
:108B900001F0070AAA4550D00027B946AAE7236981
:108BA00021F0070141F00601062DD3F80090218342
:108BB0002DD1B9F1000F40D041F00801218388F395
:108BC0001188BFF36F8F3A492046C84729E021F04A
:108BD0000701236941F0040189B2042DD3F8049000
:108BE0002183E6D000273E464FF0040A82E721F0B9
:108BF0000701236941F0050189B2052DD3F80890DA
:108C00002183D6D000273E464FF0050A72E70027A1
:108C10003E464FF0060A6DE72B4687E7B9F1000F95
:108C2000D1D14FF02003EFF3118883F31288BFF303
:108C30006F8F238B23F008032383258BEA062ED521
:108C400025F01003238305F007056669218B002EAC
:108C5000BFF66FAF00232768C4E9003321F0070196
:108C600041F001012183218B01F0070AAA454FF051
:108C700000097FF43FAF002F9BD041F00801218312
:108C800088F31188BFF36F8F002FC7D03D68394636
:108C90003346524620461AF017FA2F46F4E7AB0641
:108CA0007FF51AAF25F02003238305F00705FFE6C3
:108CB000F53004002DE9F04F8DB01D46531E82465D
:108CC000019103934FF00009039B5878252803F185
:108CD000010419D11E4600204FF0FF38023603462A
:108CE0000290444631780396392954D81F2914D864
:108CF000002900F0F08101992520D04701993078B2
:108D0000D04709F10209DFE7002800F0E48101996A
:108D1000D04709F101090394D6E7A1F12002192AED
:108D2000E9D801A757F822F0918D0200F78C0200D4
:108D3000F78C0200918D0200F78C0200118E020068
:108D4000F78C0200F78C0200F78C0200F78C02000F
:108D50005D8E0200918D0200F78C0200718E020080
:108D60001D8E0200F78C02002B8E02004B8E02003B
:108D70004B8E02004B8E02004B8E02004B8E020087
:108D80004B8E02004B8E02004B8E02004B8E020077
:108D900008460136A6E7582900F0EE80A1F16302EB
:108DA000D7B2172FA7D8172AA5D801A757F822F0AE
:108DB0001F900200978E0200F78C0200F78C0200D1
:108DC000F78C0200778E0200978E0200F78C02006B
:108DD000F78C0200778E0200F78C0200F78C0200FD
:108DE000F78C0200538F0200F78C0200F78C020010
:108DF000F38F0200F78C0200978E0200F78C0200BE
:108E0000F78C0200538F0200F78C0200778E02006D
:108E100001992520D04709F1010955E7029A02F08E
:108E2000FE0202924FF00008B3E7002C0DDAB8F111
:108E3000000F0DDA029A002A00F0458124EAE4745A
:108E40000A2202FB0414303CA3E7B8F1000FF5DB63
:108E50000A2202FB0812A2F130089AE7B8F1000FCB
:108E600055F8042B80F23181002A80F2308154427F
:108E7000022202928DE7682903D1682B06D148238C
:108E800087E76C2902D16C2B00F02381002B7FF443
:108E900032AF0B467DE77A2B06D1752955F8046B66
:108EA00014D14FF0000B0CE06C2BF6D04C2BF4D10E
:108EB000073525F007037529D3E9006B03F1080591
:108EC00006D120283ED1864F013C09E04FEAE67BDF
:108ED000BBF1000FF5DA7642824F6BEB4B0B013C96
:108EE0000DF12D03059300230493304659460A22C1
:108EF0000023FDF705F9049B03F1FF3CCDF810C0FA
:108F0000DDF814C030320CF8012DCDF814C0B44691
:108F10005A46BCF10A0F72F1000206468B46E4D2B3
:108F2000C3F1010B30330DEB0306B8F1000FA6F1CE
:108F300004066DDA029BD9077CD4A8EB0B03A4EBE3
:108F40000B0413E02B280ABF674F684F04F1FF346E
:108F5000C6E770290FD155F8042B0023FAB9644EE7
:108F6000053C6FF004034FF0050B604F029A920727
:108F70006FD4A04665E078216C2B03D155F8042B03
:108F8000002308E04C2BF9D1073525F007031D46D7
:108F90005B6855F8082B232825D1880621D5554F25
:108FA000023C01F06001A1F1390B0DF12D0E0026FC
:108FB00002F00F01092988BF594430310EF8011D14
:108FC000102A4FEA121141EA03714FEA131073F1AC
:108FD000000306F1FF3C08D2C6F1010B06F1300395
:108FE000A1E7454FDCE7414FDBE766460A4603460B
:108FF000DEE755F8046B30461CF0A6F9B8F1000F17
:10900000834602DB4045A8BFC346384F4FF00008F7
:10901000A8EB0B03002B92DDA4EB0804A6E755F8A0
:10902000043B8DF81830013C4FF0FF334FF0010B3B
:1090300006AE9AE7A046EBE7029301992020D047BD
:10904000029BB8F10108F7D524EAE472013C91448F
:10905000A41AB84606E0049302920199D047029AF6
:10906000049B9046424612F8010B0028F3D11A46A1
:10907000013A15D5002BACBFC7EB03077F425B4617
:10908000013B15D5BBF1000FA8BF5F444F442646F6
:10909000013E14D5002CA8BF3F1907EB080913E6C1
:1090A0000493029201993020D047049B029ADFE793
:1090B0000293019916F8010BD047029BE0E7019952
:1090C0002020D047E4E70122D3E6904661E614462B
:1090D0005FE64C235DE648460DB0BDE8F08F00BF6B
:1090E00099B8040097B804009BB80400D5BD0400EB
:1090F000A3B804009DB80400A0B8040008B54FF060
:109100002002EFF3118382F31288BFF36F8F02F016
:10911000F3F8034819F077FF01F09CFDFCE700BF6E
:10912000A9B8040016F096B91FB507240294044CA0
:109130000194BDF8184000941EF0F6F904B010BD7B
:10914000D70C002010B5084C86B024788DF8174055
:10915000012402940DF117040194BDF820400094FD
:109160001EF0E2F906B010BDDE0C002000B589B09B
:1091700064288DF8070019D80E4B182218700021AA
:1091800002A81CF023F90C4B03930DF10703049381
:1091900002A901230020ADF8143006F0C9FA10F13D
:1091A000800F08BF002009B05DF804FB6FF01500C8
:1091B000F9E700BFDE0C0020F4A204002DE9F7431C
:1091C0000F4606460821C06ADFF850901AF0D3FA1D
:1091D0003C68241A80463C6004EA0905AC4203D886
:1091E000002003B0BDE8F08308236A4621463046DC
:1091F0001AF034FA0028F4D1694630461AF0C5FA5C
:1092000040B1BDF80230BDF804203C6005EA090514
:1092100013441D44A4EB0804E0E700BF0000FFFF77
:109220002DE9F047044688B000F1140738461FF0D6
:10923000DAFEA06A8368DB689847E06228B96FF0BD
:109240001505284608B0BDE8F087A06A8368DB688A
:1092500098470368013B1F2BF1D8A06A216805AA33
:109260001FF03DFA0028EAD1A589002DE7D0069B22
:10927000B5FBF3F203FB1255002DE0D1E389012B7E
:10928000DDD9E36A009593F804904FF0FF334FF077
:10929000FF32384618F068FAE06A08211AF06BFAD3
:1092A000A8460646E3891FFA85FA534508D8E3899C
:1092B000434523D1384618F0D1FA6FF02C05C0E7AA
:1092C000A1892B04891B13FA81F14A460823204601
:1092D00000911AF008FA78B1694620461AF0CCF9E4
:1092E00008F10108009908234A4620461FFA88F829
:1092F0001AF0F9F90028DAD00135D3E753450BD13C
:10930000009908234A46891B20461AF0ECF918B93F
:10931000694620461AF0B0F969462046FFF74EFF2D
:10932000054618B1384618F099FA8AE7009B636041
:109330004FEA13484FEA0848C4F80880D4E90113FB
:1093400099420FD3082301AA20461AF087F905464F
:109350000028E7D101AB13F8012B914533D101353A
:10936000082DF8D163681B0C1B0469462046009346
:109370001AF082F9A38900994A4620461AF0B3F9F7
:10938000051ECFDB636876D006EB03084FF6FF7946
:10939000A389CDF800801FFA88F29B1B9A422ED336
:1093A00000236168002B43D0090C0904009120467A
:1093B00069461AF061F9009920461AF0B9F9054694
:1093C000002D74D0AEE701A920461AF0DEF96268DC
:1093D00010B9921B6260B1E7BDF80850BDF80610E5
:1093E000E06AC4F8088029441AF0C5F94044904264
:1093F000A060EED1002DECD06FF01C0568E00823D2
:1094000003AA414620461AF029F90546002889D1C9
:1094100003A920461AF0B9F930B1BDF80C304B451C
:1094200002D1BDF810300BB1B044B1E70123B8E769
:1094300020461AF07DF9054600287FF473AF636873
:10944000264AA18913400B44A3EB460363601340F3
:10945000A36020461AF07BFAB1E75B1A4A46204621
:109460001AF041F9051EFFF65DAF08D0E26AA36865
:1094700012681344A360D4E901318B42EDD86168CE
:10948000A38901EB46029A429AD1DFF85080A26884
:1094900001EA08039A4293D020461AF049F905469A
:1094A00000287FF43FAF636803EA0803A360A38941
:1094B000A288A3EB46039A4206D0384618F0CEF9AC
:1094C000012323740025BCE620461AF02BFA05463A
:1094D000384618F0C3F9002DF2D0B2E60000FFFFC5
:1094E0002DE9F04F1D46037C89B00446894690461D
:1094F000002B00F0BD80C26A082110461AF03BF92B
:109500002946824610461AF036F9A389A3EB8A034E
:109510009D42074600F2AF801DB1B8F1000F00F088
:10952000AA806368039304AA03A92046DDF80CB05F
:109530001AF063F90646002865D1BDF810304B4596
:1095400005D06268039B9A42EDD1E5B95BE004A9BE
:1095500020461AF01AF90028F3D0BDF81200BDF821
:10956000143075B19D420ED14FEA1B4109040144EC
:109570002B46424620461AF08CF8002803DC0646AB
:1095800041E0002B3FD0002F41D104F1140301939F
:109590004FF0FF324FF0FF3304F1140018F0E4F8FD
:1095A000DFF8D8B0E3899E425FD0D4E90123F918EF
:1095B0008A422FD3ADF81A3006A8FF238DF81E304B
:1095C000ADF81890ADF81C501AF0CCF8A1682B46F5
:1095D000424620461AF05BF929468246E06A1AF0B4
:1095E000CAF8A2680244A260BAF1000F07D106A926
:1095F00020461AF086F9002814BF8246AA46019830
:1096000018F02CF95646304609B0BDE8F08F5744A3
:10961000BFB2BAE70821E06A1AF0ADF84FF6FF735F
:10962000ADF818300023ADF81C301318ADF81A301F
:10963000A38902EA0B021A44101A606006A81AF005
:1096400091F806A920461AF05CF9211D20461AF06F
:1096500013F8636803EA0B03A36020461AF077F956
:1096600082460028CBD101369CE76FF01B0AC6E783
:109670006FF00C06C7E76FF01506C4E70000FFFFA8
:10968000F0B40C4B0C4E5F6A0C4BB34203D36FF03B
:109690008500F0BC70475D68BD4209D31C693CB1D0
:1096A00095F802C00579AC4502D12346F0BC1847B5
:1096B0002433EAE7302E00200C110020E8100020AF
:1096C0002DE9F047134CDFF85080DFF85090054645
:1096D0000E461746444503D36FF08500BDE8F0877A
:1096E0006268D9F824309A4212D3A36983B1907882
:1096F0002979884205D13A4631462846BDE8F047E7
:1097000018475279012A03D13A46314628469847EC
:109710002434DFE7E81000200C110020302E002058
:109720002DE9F0410B4CDFF8308005460E46174618
:10973000444502D36FF0850009E063690BB9243416
:10974000F6E73A463146284698470028F7D1BDE863
:10975000F08100BFE81000200C11002007B58378CD
:109760008DF800300379427943EA0223ADF80230E4
:10977000C378684603F003038DF8043014F060F9F1
:1097800010F1780F04D018B1002003B05DF804FB8D
:109790009DF8000014F0DCF910F1780F01D00028DA
:1097A000F2D1024B012083F8B900EEE7302E002001
:1097B0000248082200211BF009BE00BFEB2E00204A
:1097C00070B50B4B0B4CA34201D3002070BD196A3E
:1097D0001E7F00220439D5B2AE4201D82433F2E70D
:1097E000013211F832508542F5D10120EEE700BF79
:1097F000E81000200C11002008B509480378C3F3D5
:1098000041130A3350F823303BB100F1080200F154
:1098100010019847C043C00F08BD1846FCE700BFC1
:10982000302E002004282DE9F047DFF88C80044614
:109830000E4613D1FFF7BCFF204B93F8B930ABB104
:1098400000F0FEFC1E4D454526D2D5F8209000279D
:109850002A7FFBB29A4217D82435F4E7052810D1A5
:10986000164B93F8B9300BB100F0EAFC144D4545A6
:1098700017D3124B1B6AE3B131462046BDE8F047CF
:1098800018470128F2D1D7E709EBC303013718794C
:1098900014F088F90028DBDA084B002283F8B9209D
:1098A000E4E7EB681BB13246214628469847243549
:1098B000DDE7BDE8F08700BF0C110020302E00204E
:1098C000E810002073B5C4B263060D468DF807405A
:1098D00007D02046FFF774FF78B10D4B93F8BA001C
:1098E00058B10B4E204655B114F0CEF8F3691BB1B8
:1098F0000DF1070108209847012002B070BD14F057
:10990000EBF8F369002BF7D00DF107010920F2E71E
:10991000302E00202DE9F047A44EB36904460F46CF
:109920001546FBB9237803F01F03012B00F09D803F
:10993000022B00F0078133BB94F900002A6861789C
:10994000002834DA062912D008292BD0D9B90123EE
:109950001370517096F8C3305B0043F0010313702D
:1099600002232CE198470028DCD100200DE062881A
:10997000100A011F0129844605D9072803D8716AF6
:10998000D2B20C781CB96FF01500BDE8F0874E78A4
:10999000664503D19A4200F00D8101332144F0E77E
:1099A0000B780CE196F8BA301370012307E1013906
:1099B0000829E8D801A353F821F000BF559A020006
:1099C00087990200639A020087990200E1990200D8
:1099D000879902008799020087990200ED99020099
:1099E000A07814F01BF80028BFD0CCE76388756A14
:1099F00063BBFFF7DDFE638886F8BA30F369002B9E
:109A0000B3D06B4903209847AFE76B78042B10D095
:109A1000052B11D0022B04D16F796388BB4208BF9C
:109A200001202B781D442B78002BEED10028AAD0E2
:109A3000DFE795F80380F4E76388BB42F1D1B8F122
:109A4000000FEED12846FFF789FEEAE7FF27002046
:109A5000B846E8E76388012B95D1002386F8C33028
:109A600083E76388012B8ED1F8E796F8BA30D5F8F2
:109A700000C0002B87D0756AA38894F804E02A46BA
:109A8000107800283FF47FAF5178022904D192F872
:109A90000480F04500F295800244F1E78CF8002044
:109AA0008CF80120396060E7154496E00B2A7FF4BA
:109AB0006AAF00274FF0FF08C146BA4606E06B7850
:109AC000042B0FD0052B21D02B781D442B78002B95
:109AD000F5D1F36913B1514607209847002F7FF461
:109AE00044AF50E795F80280A38895F80390984515
:109AF000EAD163889945E7D1B8F1070F1FD806EB83
:109B00000803AA4683F8BB900127DDE7A3884345F5
:109B1000DAD1A3784B450DD0AF78384600F072FB10
:109B2000384614F03FF810F1780FEDD0B0FA80F716
:109B30007F09C9E72846FFF711FE0746C4E7AA4692
:109B40000027C1E794F900206378002A18DA002B77
:109B50007FF419AF24792D6863060AD02046FFF7F9
:109B60002FFE00283FF40FAF96F8BA30002B3FF4D9
:109B70000AAF2946204613F0CFFF00236B70EFE6B3
:109B8000012B08D0032B7FF4FEAE6388002B7FF4FB
:109B9000FAAE012103E0618800297FF4F4AEA088C9
:109BA000FFF790FE00287FF4E0AEECE6302E0020B8
:109BB000EA2E0020022829607FF4F2AE4B883B6039
:109BC000D3E694F9000062780028BFF66FAF002A50
:109BD0003FF464AF0A2A7FF4D6AE2A78002A3FF415
:109BE000D2AE697804297FF45FAFA9788B427FF405
:109BF0005BAF072B96BF9B19002393F8BB308CF803
:109C00000030D2E613B5134C237DCBB9E268A168CE
:109C1000019201AB802019F0D2FF019AA36813448E
:109C2000A360E3689B1AE36043B93AB12369E28811
:109C30009A4203DD9B0601D10123237502B010BDBA
:109C400000231A4619468020237502B0BDE8104053
:109C500013F0CEBF302E002030B585B00023024671
:109C60000D460193002858D1002935D108220B4612
:109C70000DEB02011EF0B0FB002804DA802013F087
:109C800003FF05B030BD2A4C029A2260039A62603D
:109C900004F13802A2609DF90820BDF80E30257548
:109CA000002AC4E903550ADB802B04D9802013F075
:109CB000EBFE0020E3E713B1C4E90333E1E7FFF76C
:109CC0009BFD0028DAD0E28823699A42D4BFE26083
:109CD000E360FFF797FFD4E7154CD4E90215002D98
:109CE00001AB04DC1EF078FB0028CADAC6E72A467E
:109CF0001EF072FB0028D9DB019AA3681344A3600D
:109D0000E3689B1AE360002BBBD104F13803A36026
:109D1000FFF772FD0028DCD1B0E78028B1D1044BF9
:109D2000DA68002AD5D11B7D002BD2D1A9E700BF6C
:109D3000302E0020044B93F8C3300BB11EF05BBBF8
:109D40006FF00C00704700BF302E0020054B064A14
:109D50009A62064ADA62064A1A63064A58629A61A9
:109D600000207047302E00201599020081960200D5
:109D700021970200C196020010B5084B93F8B84035
:109D800034B900F0CBF830B1FFF7E0FF204610BD4A
:109D90006FF07700FBE74FF0FF30F8E7302E002040
:109DA0002DE9F3410446354D35484FF0FF324FF071
:109DB000FF3317F0D9FC95F8B860002E5BD131481D
:109DC0002C62E86114F02EF813F0EAFD041E36DB75
:109DD00000F05AFA041E32DB40236846ADF8023028
:109DE0008DF804608DF8006013F02AFE041E26DB57
:109DF000802768468DF8007013F022FE041E1EDBDB
:109E00002149304613F0FAFF041E18DB1E4938467C
:109E100013F0F4FF041E12DB1C4CDFF87480444581
:109E200014D3002013F094FE041E08DB802013F0EE
:109E30008FFE041E03DB012385F8B8300024104890
:109E400017F00CFD204602B0BDE8F081276A00261D
:109E5000227FF3B29A4201D82434E0E707EBC30231
:109E600057F83310107913F0C9FF01360028EFD0EE
:109E70004FF0FF34E3E76FF07704E0E7302E002087
:109E8000300E002025980200599C0200E8100020A6
:109E90000C11002030B51F4B8BB005AA03F1100543
:109EA00018685968144603C40833AB422246F7D1F8
:109EB0001B7823701022002101A81BF087FA1222C0
:109EC000002115481BF082FA102101A81EF09AFB10
:109ED00000281BDD0828B8BF0820093801AB0E494F
:109EE0001A18002012F8013F0AAC04EB131403F017
:109EF0000F0328336B44013014F8144C13F8143C4E
:109F00000C7008284B7001F10201EBD102480BB034
:109F100030BD00BFDEB804006F5800202DE9F04FBF
:109F2000644C85B000264FF0011BB1463546B24661
:109F300023782BB9604B02349C42F3D15D481CE07E
:109F40006378052B05D8DFE803F07B04037B072546
:109F5000A24623781C44EBE7E378002BF9D1A378E1
:109F600073B109F101095FFA89F9F2E76A6894426D
:109F700009D024359D42F9D3002005B0BDE8F08F0B
:109F80004E4D4F4BF6E7AB68002BEAD049462046D2
:109F90009847E6E7002DEFD0002301212A7F934266
:109FA000EAD22A6AA77802EBC3021079874201D06D
:109FB0000133F3E70127E07800F003008DF80C008F
:109FC000207994F805C040EA0C20ADF80A0094F915
:109FD000020000285FFA87F827DA07F1100001FA7B
:109FE00000F010EA0B0F27D148F080008DF8080030
:109FF00002A8CDE900321EF0D7F9DDE900320121D7
:10A00000D0B99DF80830A37013F0800F18BF08F185
:10A010001008137118BF5FFA88F80B460CBFBB40DD
:10A0200001FA08F34BEA030B93E701FA07F010EA91
:10A030000B0F01D14046D9E70137102FBBD1B7E74D
:10A04000032E1DD1FFF726FF074668B11BF07CF9F0
:10A05000804648B11B481BF077F9804504D1424641
:10A060003946A01C1BF0A7F923786FF00201E21813
:10A07000091B04EB5303D14213D50136F6B268E74E
:10A08000002EF1D1BAF1000F3FF476AFA4EB0A0332
:10A090008AF80230C3F307238AF803308AF8049061
:10A0A000EBE74FF0000002F8010C13F8010902F889
:10A0B000020DE0E754100020E6100020E810002018
:10A0C0000C110020DEB8040010B5094B00211A461F
:10A0D0001C78844205D15C681CB1482303FB012035
:10A0E00010BD0131042903F14803F1D10020F7E745
:10A0F000F42E00202DE9F34150F8303C10F8346C78
:10A100001033044610D1036950F8282C99073CD528
:10A1100002BB13F0040304D11A461946304619F065
:10A120004EFD002344F8303C54F8303C10330ED040
:10A1300054F8205C5DB154F8247C54F81C8C1EF05B
:10A1400038FF00284CD02E4821461FF0F4F802B00A
:10A15000BDE8F08150F82C1C01AB304619F02FFD02
:10A1600010B16FF01503DDE7019A54F82C3C13444D
:10A1700044F82C3C54F8283C9B1A44F8283C54F8EA
:10A18000243C134444F8243CCEE750F82C1C01AB8B
:10A19000304613F0A9FD0028E3D1019D54F82C3C72
:10A1A0002B4444F82C3C54F8283C5B1B44F8283CD6
:10A1B00054F8243C2B4444F8243C002DB1D03046C4
:10A1C00013F036FEB5FBF0F303FB1055002DA8D1BC
:10A1D00054F8283C002BA4D0304613F0CDFDA3E763
:10A1E00044F8200CA4F1180017F0A8FB54F8303CF8
:10A1F0008C33ACD0424639463046A847A7E700BF6B
:10A20000482D002010B54FF02003EFF3118483F3A5
:10A210001288BFF36F8FFFF757FF50B143681033B9
:10A2200007D16FF08B03436000F1340103481FF046
:10A2300082F884F31188BFF36F8F10BD482D002082
:10A2400070B50F4C04254FF02003EFF3118683F314
:10A250001288BFF36F8F6368103307D16FF08B03E1
:10A260000848636004F134011FF065F886F3118833
:10A27000BFF36F8F013D04F14804E4D170BD00BF0E
:10A28000F42E0020482D002070B50A4C0A4E0025FF
:10A29000314620461FF022F80122A4F11800114691
:10A2A00001351EF099FF042D04F14804F0D100207F
:10A2B00070BD00BF282F0020F5A0020070B5114B23
:10A2C0001C680D46DCB1104B196800238B4202DB81
:10A2D0006FF0010070BD224612F8106B864202D06A
:10A2E00001331446F2E7E06810B96FF01200F1E7AD
:10A2F0001EF079FD0028F8D02C600020EAE76FF00E
:10A300000C00E7E77404002030A3040070B588B0A7
:10A3100005460C46C0B269461646FFF7CFFF002837
:10A320001BDB0098C8B143680293836822680195DB
:10A33000CDE903360023CDE906230593C56819F05E
:10A3400086FC6DB12846084901AA1EF0CCF9079891
:10A3500008B9059B236008B070BD6FF01500FAE7DF
:10A360006FF01200F7E700BF513C04002DE9F04107
:10A370000F4B1C6805460E461746ACB14FF0FF3236
:10A380004FF0FF330B4817F0EFF963683246D3F80C
:10A39000088029463B462046C0470446054817F03A
:10A3A0005DFA2046BDE8F0816FF00104F9E700BFD7
:10A3B000143000201C0E002000230360044B5A6858
:10A3C00012B9C3E90000704710605860704700BFC1
:10A3D00018300020014B1860704700BF1430002077
:10A3E00030B585B000230546CDE9023301904FF02A
:10A3F000FF330C484FF0FF3217F0B6F90A4B1C68D8
:10A400004CB9284600F0CEF80446064817F026FA64
:10A41000204605B030BD636820461B6801A99847F7
:10A420002468EDE71C0E0020183000201FB5CDE990
:10A43000010103924FF0FF330A484FF0FF3217F04B
:10A4400093F9094B1C682CB9064817F007FA204607
:10A4500004B010BD636820461B6801A998472468B2
:10A46000F1E700BF1C0E002018300020024B002234
:10A47000C3E90022704700BF18300020024B0022C1
:10A48000C3E90022FFF7F2BF2030002070B51B4C5B
:10A490001B4E0546B44212D31A4E1B484FF0FF32F2
:10A4A0004FF0FF3317F060F934687CB1286854F836
:10A4B000141C143C1AF04FFFC8B16469F5E7216819
:10A4C00028681AF048FFA8B11434E3E700226A6153
:10A4D000726805F114033AB9C6E9003300240A484A
:10A4E00017F0BCF9204670BD13607360F6E76FF09B
:10A4F0001004F4E76FF01004F4E700BF209F04009D
:10A50000989F0400203000201C0E00202DE9F74306
:10A5100007460C4609B100230B601F4DDFF87C9005
:10A5200000264D450FD31E4B1D6885B355F8148C7E
:10A5300001AA41463846143D19F0B0FB10B3D6B914
:10A5400014BB2E461EE0D5F8008001AA41463846CD
:10A5500019F0A4FB50B116B954B92E4606E0316883
:10A560000022404619F09AFB0028F5D11435D8E7AF
:10A57000019B2360F1E731680022404619F08EFB11
:10A580000028DDD16D69D0E7019B2360D9E7304613
:10A5900003B0BDE8F08300BF209F0400989F040033
:10A5A00020300020F8B5184C184F06460025BC4254
:10A5B00008D3174B1C682CB3143CB6B9E368E3B955
:10A5C0006469F8E72EB9E3685BB928461434054698
:10A5D000EDE720680022314619F060FB0028F2D137
:10A5E000F3E79847002DF0D1F0E7206800223146CC
:10A5F00019F054FB0028E1D1E2E79847002D08BF8D
:10A600000546DDE72846F8BD209F0400989F04001A
:10A610002030002010B5074C23780BB1002010BD6E
:10A62000FFF72CFF00F066F80028F8D10123237013
:10A63000F4E700BF815800202DE9F047048FDFF8D0
:10A64000B0A0013498B080468946A4B200F1080653
:10A65000651EADB2B5F5004F47D04A2305AA29467D
:10A66000304619F0A5FA04F57F543F34A4B20746EA
:10A67000214601230DF10B02304619F099FA002F03
:10A68000014603DC002803DC2C46E1E7002816DC49
:10A69000B8F83830AB4209D142466B1E22F8383F39
:10A6A0004FF4004102233046FEF71AFF2946304698
:10A6B00019F01AFA2146304619F016FAE4E707F1C4
:10A6C00060030DEB0307002307F84C3C5246CDF81E
:10A6D000009003AB05A80396ADF8104019F014FBE9
:10A6E0000028D1D018B0BDE8F0870020FAE700BFFD
:10A6F000773D04007FB50123694602200193FFF7EF
:10A70000DDFD0446002834D102AA01A90220FFF78A
:10A71000FDFD10F1130F04462BD038B10C3405D0D9
:10A72000404080F311884FF0040002DF0399B1F537
:10A73000803F23D2009A002394681846084484423C
:10A740001AD30133082BF9D10E4DA982EB8253683D
:10A75000AB602846D368EB6319F0A7FB044640B909
:10A76000094E6E602846FFF727FE28466E60FFF709
:10A7700031FE204604B070BD9BB2E5E76FF02004C7
:10A78000F7E700BF28300020780400202DE9F843C7
:10A7900005464FF02003EFF3118683F31288BFF3D1
:10A7A0006F8F0E4B0E4F1C68DFF838804FF00C098E
:10A7B0002CB986F31188BFF36F8FBDE8F883D4E915
:10A7C0000123002D18BF13462BB198F8142009FB64
:10A7D00002F2B85C98472468EAE700BF80300020A6
:10A7E000743000202857002070B5194B1C7DBFF332
:10A7F0005B8F04F01F0301229A40164B610903EBA3
:10A800008103D04353E8001F01EA000543E80056E6
:10A81000002EF7D1BFF35B8F0A4213D00E4B0F4DC2
:10A820008BB10C236343EA18E85C51781AF0F0FD11
:10A830000020FFF7ABFF0C235C432A1900232B51A8
:10A84000C2E9013370BD83F31188BFF36F8FEFE767
:10A850002857002088300020115404007430002054
:10A860002DE9F041354B07461D7D4FF02003EFF3F6
:10A87000118883F31288BFF36F8F0C24304B314E55
:10A880006C431A19195D00294CD007CA06EB040C59
:10A890008CE8070000221A5588F31188BFF36F8FE8
:10A8A0000C236B43F218F05C002839D07B1C10D0CD
:10A8B000D2F808C0244C254A4FF400400021ECFB9C
:10A8C000004100232046FBF71BFC0121381A1EF033
:10A8D000D7FE17F081FC0120FFF758FFBFF35B8F15
:10A8E0001B4B6A0903EB820305F01F0101228A401A
:10A8F00053E8000F104343E800010029F8D1BFF3EB
:10A900005B8F144B3BB10C2303FB05F03318305C19
:10A9100059781AF071FDFFF767FF17F071FC0120FD
:10A92000BDE8F0810146284600F016F80028B3D0B3
:10A9300007C8344484E80700AEE700BF285700206A
:10A9400068300020743000203F420F0040420F006A
:10A9500088300020F95304002DE9F04F85B00E46F1
:10A9600003A900F043F81E4B039DD3F800A0DFF8C5
:10A970007480431E1BB203EB4303044605EB8305BF
:10A980004FF400474FF0000B24B9A146484605B0EC
:10A99000BDE8F08F6868144AC4465946E0FB07C119
:10A9A00000236046FBF7ACFB0190A8680E4AC44642
:10A9B0005946E0FB07C100236046FBF7A1FBBAF153
:10A9C000FF3FA94601D0824505D9731CDED0019B0B
:10A9D0001844B042DAD9013CA4B20C3DD4E700BF20
:10A9E0008C0400203F420F0040420F0008B9024B88
:10A9F0000B600020704700BF74A30400014B18686F
:10AA0000704700BF90040020F0B5082289B019F00B
:10AA100023FCCB6A03930B6B04934B6B05938B6BFB
:10AA20000693CB6B079313466A460C4606460027EF
:10AA300011461046CDE90177009719F01BFB31460E
:10AA40000546304619F016FB216B0391616B0491AA
:10AA5000A16B0591E16B0544CDE90617104611463F
:10AA600019F008FB31460544304619F003FB054454
:10AA7000206A0090606A0190A06A0290A06B069024
:10AA8000E06B07903046CDE90477039719F0F2FAAE
:10AA90000544606A0090A06AD4F838C00190E06A6A
:10AAA0000290CDF810C0606BD4F83CC00390CDE9A3
:10AAB00005C0206A0790304619F0DCFA0544E06AC8
:10AAC0000090206B0190606B0290206A0690A06A53
:10AAD00007903046CDE90477039719F0F0FB236B1C
:10AAE0000093636B0193A36B0293E36B0393636A1D
:10AAF0000693E36A07932D1A0823304619F0DFFB0B
:10AB0000636B0093A36B0193E36B0293236A03933C
:10AB1000636A0493A36ACDE90537236B07932D1A63
:10AB20000823304619F0CBFBA36B0093E36BCDE910
:10AB30000137636A0393A36A0493E36A0593636B23
:10AB400007932D1A0823304619F0B9FB2D1A10D49B
:10AB50000D4C35B908223146204619F089FB0128F1
:10AB60000FD0082322463146304619F0A8FB2D1A93
:10AB7000EFE7054A08233146304619F07BFA2D18D5
:10AB8000F8D409B0F0BD00BF78A304000449431E07
:10AB90000F3013F8012F8A5C1A708342F9D1704785
:10ABA000EFB80400F0B5264E07460C460FCE8DB028
:10ABB00001AD0FC50FCE0FC596E8070085E8070069
:10ABC0003846002F38D0002C38D0381F2146024696
:10ABD00010344B780D781B0443EA0563CD782B4382
:10ABE0008D78043143EA05238C4242F8043FF0D1CA
:10ABF000144C04218A07036916D1C3F30742A55CEC
:10AC00001A0EA25C42EA0562C3F30725DBB2655D5A
:10AC1000E35C42EA054242EA032221F003033033B7
:10AC20006B4453F82C3C534050F8042F01315340EF
:10AC30002C290361DED101200DB0F0BD2046FBE7D9
:10AC4000B49F0400EFB80400014910220A60704765
:10AC500010ED00E072B6404080F31188BFF36F8FB3
:10AC6000BFF34F8F30BF62B6BFF36F8F704700BF27
:10AC700072B6494081F3118820BF80F3118862B613
:10AC8000704700BF40B2002807DB044A4109012396
:10AC900000F01F00834042F82130704700E100E0DF
:10ACA00040B200280CDB4309064900F01F002033A6
:10ACB0000122824041F82320BFF34F8FBFF36F8FF3
:10ACC000704700BF00E100E0054B420900F01F00A3
:10ACD00053F82220012303FA00F01040704700BF10
:10ACE00000E100E040B20028A8BF00F1604001F19F
:10ACF0000101B8BF064B4FEA4111ACBF00F56140FE
:10AD000000F00F00C9B2B4BF195480F800137047A7
:10AD100014ED00E008B572B6044B9A691AB100222E
:10AD20009A611EF051F962B608BD00BF2857002095
:10AD300030BFFFF7FDBF00BF0F4A08B50F4B22F031
:10AD40007F029A60BFF34F8FBFF36F8FD3F88820D5
:10AD500022F47002C3F88820EFF3148323F0040375
:10AD600083F31488BFF36F8F16F07CFA17F084FB1F
:10AD700000F09CF916F0B6FA0060020000ED00E069
:10AD8000094A0A4993680968D967094998674B686D
:10AD900043F080534B60002383F31188BFF36F8F20
:10ADA0009368D86F704700BF2857002094B50400FF
:10ADB00000ED00E00F498A684FF030001044EFF3D7
:10ADC000098C80E8F01F202080F31288BFF36F8F7A
:10ADD000094F4FF00066CA698A603E60906F002399
:10ADE000936780F3118802F1300090E8F01F8CF334
:10ADF000098870472857002004ED00E01EF0040F7A
:10AE00000CBFEFF30880EFF30980816911F8021C91
:10AE10000229FFD001B51AF076F901BD42F8203CB5
:10AE2000009B42F81C3C0A49019B42F8183C029BDB
:10AE300042F8143C21F001014FF0807342F8043CC9
:10AE400042F8081C0023203A02658367704700BF60
:10AE500069320400074B9860104681F3098800218D
:10AE600063B681F31188BFF36F8F0022002318F0BF
:10AE7000FBF900BF2857002001B572B60B4A906954
:10AE800000281EBF002191611EF09EF862B6EFF30C
:10AE90000580A0F110004FEAC0000549014409C92E
:10AEA0009847BDE8014003490847000028570020A3
:10AEB000E49C0400B9AE0200044B9968D86988424A
:10AEC00003D003494FF080520A6070472857002092
:10AED00004ED00E00D4B9A6A9A6A9A6A920508D5C9
:10AEE0009A6B9A6A120404D518B19A6A22F4004245
:10AEF0009A629A6A9A6AD205044A58BF9B6A936A10
:10AF0000002043F47F4393620870704700ED00E037
:10AF1000114B9A6A9A6A9A6A920708D55A6B9A6A8A
:10AF2000120604D518B19A6A22F080029A629A6ACF
:10AF30009A6A9A6AD00658BF9B6A074B9A6A920629
:10AF400042BF5A6A22F400525A629A6A002042F0C2
:10AF5000FF029A620870704700ED00E070B5494B3F
:10AF60005B688AB00646C3F30803002585F31188A1
:10AF7000BFF36F8F02F07F40B0F17F4F11D102F02D
:10AF80000C0008280DD010074CBF0E4601250022EA
:10AF9000033B8DF80720032B4CD8DFE803F0046453
:10AFA000686C2E46F3E7374BDA6A910742D4DA6AC7
:10AFB000002A3FDBDA6A52003CD55A69B16942F493
:10AFC00080725A61BFF34F8FBFF36F8F5A6931F8A8
:10AFD000021C22F480725A61BFF34F8FBFF36F8F50
:10AFE0004DF60272914208D09A6AD2B23AB10DF18E
:10AFF00007010120FFF78CFF0AE034681BE09A6A22
:10B0000012F47F4F06D00DF107010120FFF762FF18
:10B01000044610E09A6AB2F5803F0BD39A6A9A6AA6
:10B020009A6A9A6A9A6A9A6A9A6A6FEA02426FEA16
:10B0300012429A6200249DF8073093B920223146CB
:10B0400002A81AF0B8F9099BBDB1C3F3080222B9EE
:10B050006FEA53236FEA4323099302A920461AF0AB
:10B0600050F80AB070BD0DF107010020C2E70DF1E4
:10B0700007010020CAE7034BD0E723F4FF7323F056
:10B080000103E9E700ED00E0024A536943F01003D1
:10B090005361704700ED00E0EFF30880EFF30981A2
:10B0A00001B57246FFF75AFF01BD00BF04480023F7
:10B0B0002021C2180133302B82F80013F9D17047D8
:10B0C00000E100E0FEF72EF8202080F31188084808
:10B0D0004FF40061401880F30988EFF314800221D7
:10B0E000084380F31488BFF36F8FFFF725FE00003D
:10B0F00038760020084B9B6883420BD1EFF3058321
:10B1000043B1064B5A6842F080525A605A6A22F4A0
:10B1100000425A6217F03EB92857002000ED00E0C7
:10B12000024B034A0348012100F060B800000420EC
:10B130000000002024A40400F0B5204E00258D421C
:10B1400039DA446874B353B104F1FF3C14EA0C0FCC
:10B150002FD11F2C2DD907681CEA070F29D1202CCD
:10B160000768D0F808C05FFA82FE1ED9B4F1004F1C
:10B170001DD8013CB4FA84F4C4F11F046400BEF18C
:10B18000070F4CEA040C14D827F01F04144344F0B2
:10B190001004C6F89820C6F89C404CF00104C6F88C
:10B1A000A040013201350C30C9E70824E7E73E240E
:10B1B000E5E76FF015021046F0BD00BF00ED00E0BE
:10B1C000044B0522C3F89420BFF34F8FBFF36F8F5A
:10B1D000704700BF00ED00E0BFF35F8F024B00221D
:10B1E000C3F89420704700BF00ED00E010B5034C99
:10B1F00001232278FFF7A0FF207010BD82580020A5
:10B2000014490868082810B521D8FFF7E5FF124C4B
:10B2100049680022904201F10C0105D10F4B1870D2
:10B22000FFF7CEFF002010BDC4F8982051F80C3C69
:10B2300023F01F03134343F01003C4F89C3051F86C
:10B24000043C43F00103C4F8A0300132E2E74FF0C0
:10B25000FF30E8E730A4040000ED00E08258002051
:10B260000CB410B586B009B90DF10B000024CDE97E
:10B27000040109AB089A009404A905480393FDF75B
:10B2800019FD049B1C7006B0BDE8104002B0704769
:10B29000DF5304000EB410B587B009AB00246FF083
:10B2A000004153F8042B04900591009404A905482B
:10B2B0000393FDF7FFFC049B1C7007B0BDE8104032
:10B2C00003B07047DF5304004FF02003EFF3118207
:10B2D00083F31288BFF36F8F06490123C1F840350D
:10B2E0004FF08041C1F8783582F31188BFF36F8F3A
:10B2F0000020704700E001404FF08043C0B2C3F827
:10B300001C05BFF34F8F0549054BCA6802F4E06284
:10B310001343CB60BFF34F8F00BFFDE700ED00E0AC
:10B320000400FA0520B1034B800143F001031847E4
:10B33000704700BF30A00400F8B5594EBFF35B8FD3
:10B340003468BFF35B8F14F0010450D0554F564C56
:10B35000564D57483A46214618F0E0FDE0B320220A
:10B36000294620461AF017F80028F2D000274FF09F
:10B37000FF324FF0FF33012000F070FA00F10805B2
:10B380000221044628461CF097FF3E230370422307
:10B390004370012128461CF08FFF082303704121D0
:10B3A00028461CF089FF054600F8017BB7B1402212
:10B3B00000211AF00BF8BFF35B8F56E8003F23F033
:10B3C000010346E80032002AF7D1BFF35B8F204625
:10B3D000BDE8F84000F0FCBE1F27C8E734491AF06A
:10B3E00067F8203105F121001AF062F8E3E7BFF3B6
:10B3F0005B8F3368BFF35B8F9B0750D529492C487F
:10B4000019F04AFC002811DBBFF35B8F2649336833
:10B410002648BFF35B8F13F0040F01F12002214B8C
:10B4200018BF0146104618F0C8FD04464FF0FF3221
:10B430004FF0FF33012000F011FA00F1080702215C
:10B44000054638461CF038FF3E2303702223437024
:10B45000012138461CF030FF0923037021213846B2
:10B460001CF02AFF034601309CB91F221A70FF21ED
:10B47000202219F0ABFFBFF35B8F56E8003F23F0AB
:10B48000020346E80032002AF7D1BFF35B8F28465B
:10B490009EE7002206491A701AF00AF8EBE7F8BD99
:10B4A0008C30002050A404008358002018BA0400F7
:10B4B000A358002070B5214CBFF35B8F2368BFF306
:10B4C0005B8FDA0706460D4601D50C2070BD0129B9
:10B4D00031D8BFF35B8F54E8003F43F0020244E8E9
:10B4E00000210029F7D1BFF35B8F9B07EDD41448EF
:10B4F000314619F0DDFF134806F1200119F0D8FF9D
:10B50000BFF35B8F75B154E8003F43F0040344E898
:10B510000032002AF7D1BFF35B8F0B4800F062F9CD
:10B520000020D3E754E8003F23F0040344E800324E
:10B53000002AF0D0F6E71220C8E700BF8C300020C8
:10B54000A3580020C35800209404002070B5067D45
:10B55000044676B983681D8842F22602954245D09A
:10B560000FD842F2010295424FD042F225039D428C
:10B5700013D02A4BD3F8543120465B69BDE87040A4
:10B58000184742F25E039D42F3D1032108301CF0BC
:10B59000B2FEA06890F840102EE0032108301CF0A5
:10B5A000AAFE204611F0A6FDBFF35B8F1C4B1A6864
:10B5B000BFF35B8F920707D50C26314642F2250078
:10B5C00019F052FF002070BDBFF35B8F53E8002FCE
:10B5D00042F0010143E800100028F7D1BFF35B8F70
:10B5E000D307E9D40F4800F0FDF8E6E7032108305F
:10B5F0001CF081FEA0683146FFF75CFF064620463E
:10B6000011F078FD31462846DAE7DA7802F07F0259
:10B61000DA701A7922F001021A71AAE700000020FC
:10B620008C3000209404002003490448CA79C2EBFE
:10B63000C202FEF79BBE00BF0000002038BA040023
:10B64000F7B51B4CBFF35B8F1F462368BFF35B8FBF
:10B650001646DA07054624D518B96FF0010003B085
:10B66000F0BD01A918F03EFB12490246284619F028
:10B670007EFE0028F1D1BFF35B8F2368BFF35B8FA1
:10B68000C3F3C0051B070CD4CC3C07222146384627
:10B69000B047062807D807222946204619F096FE0B
:10B6A000E5710020DBE70723B0FBF3F0E071F8E77A
:10B6B000CC0000204FB704002DE9F04188B09C7900
:10B6C000DDF838805D791E79DF7893F802C093F851
:10B6D00001E01B78B8F1000F0ED0CDE90638CDE9B6
:10B6E00004CE1346CDE90267CDE90045084A17F0BC
:10B6F00097FC08B0BDE8F081CDE905E3CDE9037C16
:10B700001346CDE90156034A009417F089FCF0E78F
:10B710003EBA040062BA0400014816F0ADBA00BF98
:10B72000A404002070B51A4CBFF35B8F2368BFF3ED
:10B730005B8F13F0010F25461DD014F8C53CA4F112
:10B74000CC06D3B1BFF35B8F2368BFF35B8F5A077F
:10B7500001D400F0E9FDBFF35B8F55E8003F23F40F
:10B76000803245E800210029F7D1BFF35B8FDB036E
:10B7700001D5FFF7D1FF002009E001F07BF830B9D7
:10B78000F379002BDED101F0B5F80028DAD070BDD6
:10B79000CC00002030B50A4D0A4B85B00024284665
:10B7A000029303941DF0D8FD02AB0093284606498E
:10B7B0000A234FF4A36216F065FA204605B030BDA7
:10B7C0004012002083BA0400405B0020014601487B
:10B7D00016F090BA401200200146014816F0BABA9D
:10B7E00040120020014601481DF0A5BD4012002076
:10B7F00030B4034608461A78012A13D0022A26D00C
:10B8000072B9154A02F1100452F8045B41F8045B66
:10B81000A242F9D112780A705B8843731B0A8373C2
:10B8200030BC70470C4A02F1100452F8045B41F836
:10B83000045BA242F9D112780A705B684373C3F3C8
:10B8400007221B0CC3731B0A82730374E8E730BC26
:10B850001122194619F0AFBD8CBA040038B505465F
:10B8600005481CF0C7FC044620B1002108301CF03C
:10B87000E0FC2575204638BDFC0F002010B50B46B6
:10B880000A490246D1F8380120B9BDE8104001202C
:10B89000FFF7E4BF1CF0DEFC01230021037581816A
:10B8A000044608301CF0C5FC204610BD00000020F6
:10B8B00070B504460F2C0D461046194605D80D2CC0
:10B8C0000DD9BDE87040FFF7D9BF132C07D10C4844
:10B8D0001CF090FC044638B90024204670BD024696
:10B8E0000B4645B10748F3E7002108301CF0A1FCE6
:10B8F00001232375F1E7BDE870400120FFF7AEBFDB
:10B9000028100020780F0020F8B506460F4601F0F9
:10B9100059FF044640B18378012B24D013211AF03B
:10B92000C2FC20461AF07AFC3946304605F068F928
:10B93000054628BB3946304604F08EF8144B1B6888
:10B9400023B31C6804B10C3C53F8043C13B13946D2
:10B9500030469847D4B12346E4689B68A4B10C3CB8
:10B96000002BF4D1F7E70023D0F8B450C0F8B4307E
:10B9700013211AF098FC20461AF050FC002DD3D069
:10B98000284605F05BF9D5E7002BE0D1F8BD00BFF4
:10B99000EC30002038B58368B3F801401B788BB9D0
:10B9A000204601F03FFD054668B96FEA04500A4A97
:10B9B00005236FEA105032F8021B09B922F8020C75
:10B9C000013BF8D138BD012101F034FD2846BDE826
:10B9D00038401AF023BC00BF6857002010B5084C4F
:10B9E0000146052294F8670001F010FF38B994F879
:10B9F00067000449BDE81040042201F007BF10BDF4
:10BA000000000020FEB9040010B5012104460830F2
:10BA10001CF079FC2146034A0078BDE810400A2357
:10BA200019F0A4BE88A50400F8B5074690790E4623
:10BA3000144611F09DFA284B83424BD1204611F059
:10BA40009FFA264D0C2303FB00504388BB4241D193
:10BA5000234FD7F8380120B111F04CFB0023C7F871
:10BA60003831204611F08CFA0C2707FB0050436850
:10BA70009BB196B9204611F083FA07FB00500121D3
:10BA80004268D2E90003127A03F01F07B9405B094C
:10BA9000D2B100EB830019F0D4FD204611F070FA0A
:10BAA0000C2707FB00508368A3B1204611F068FA09
:10BAB00078432E54204611F063FA07FB0055A8681E
:10BAC000BDE8F84015F03ABFC94300EB830019F018
:10BAD00064FEE2E7F8BD00BFD00F002090300020E8
